:1000000071C0000081C000007FC000007DC0000002
:100010007BC0000079C0000077C0000075C0000000
:1000200073C0000071C000006FC000006DC0000010
:100030006BC0000069C0000067C0000065C0000020
:1000400063C0000061C000005FC000005DC0000030
:100050005BC0000059C0000057C0000055C0000040
:1000600053C0000051C00000F4C100004DC00000AA
:100070004BC0000049C0000047C0000045C0000060
:1000800043C0000041C000003FC000003DC0000070
:100090003BC0000039C0000037C0000035C0000080
:1000A00033C0000031C000002FC000002DC0000090
:1000B0002BC0000029C0000027C0000025C00000A0
:1000C00023C0000021C000001FC000001DC00000B0
:1000D000F6C1000019C0000017C0000015C00000E4
:1000E00013C0000011241FBECFEFD1E2DEBFCDBF91
:1000F00000E00CBF22E0A0E0B2E001C01D92A43EEF
:10010000B207E1F712D247C27BCFFC01EC59FF4F97
:10011000918380833296918380830895FC01EC590A
:10012000FF4FA081B1816C93208131812E173F0751
:1001300018F0918380830895FC01EC59FF4F2F5FE5
:100140003F4F318320830895CF93DF93FC01EA5919
:10015000FF4F0190F081E02DDC01AC59BF4F2D9194
:100160003C9111972E173F0779F4EC01CA59DF4FE4
:1001700025E02A95F1F70000E881F9812D913C9165
:1001800011972E173F07A1F32081AC014C595F4F07
:10019000E417F50730F0FC01EA59FF4F91838083A3
:1001A00006C0DC01AA59BF4F3196ED93FC93822F14
:1001B000DF91CF910895DC01AC59BF4FFC01EA59A2
:1001C000FF4F81E04D915C912081318142175307AF
:1001D00009F480E00895CF93C42F962F907F8F70FD
:1001E000692F682B84E192E099DF6C2F84E192E023
:1001F00095DF69E684E192E091DFE1ECF0E0808157
:1002000080628083CF910895EF92FF920F931F93A6
:10021000CF93DF93082FE62EF22E18E0140FC42F91
:10022000D1E09D2F902361F09D2F9E2129F04C2F2E
:1002300060E98F2DD0DF04C04C2F60E88F2DCBDF1D
:10024000DD0FCF5FC113EDCFDF91CF911F910F91E4
:10025000FF90EF900895EF92FF920F931F93CF932B
:10026000DF93082FE62EF22E18E0140FC42FD0E8EB
:100270009D2F902361F09D2F9E2129F04C2F60E946
:100280008F2DA9DF04C04C2F60E88F2DA4DFD695F9
:10029000CF5FC113EDCFDF91CF911F910F91FF90F1
:1002A000EF9008958F929F92AF92BF92CF92DF927C
:1002B000EF92FF920F931F93CF93DF930F2EF4E0F3
:1002C000CF2EF2E0DF2EF02DC5E0D2E00F2EFCE2C3
:1002D0008F2EF02D6894992497F810E06894EE24FE
:1002E000E3F8FF24F394F70190828FE99FE00197F0
:1002F000F1F700C0000006B15601F60180818027A9
:1003000029F02CE048EF480D602F7EDFF5010083D7
:1003100000B15E018881802721F02CE0482D602FFC
:100320009ADFF50100831F5F9694F2E0CF0ED11C97
:10033000229680E1880E1430B1F66894DD24D3F85B
:100340006894EE24E3F8FF24F394F701D0828FE958
:100350009FE00197F1F700C0000006B1C12FD0E087
:10036000CC0FDD1FFE01EC5FFD4F8081802741F047
:10037000412F43704295407F4C5D2BE0602F44DF5E
:10038000FE01EC5FFD4F008300B12196FE01EC5FA2
:10039000FD4F8081802741F0412F43704295407F7F
:1003A000445D2BE0602F57DFCC5FDD4F08831F5F7C
:1003B000D694183051F6DF91CF911F910F91FF9095
:1003C000EF90DF90CF90BF90AF909F908F90089567
:1003D000CF9382E084BB8FE99FE00197F1F700C0E3
:1003E0000000C0910901809100028C2721F02DE0CE
:1003F00044E26C2F30DFE0E0F2E0C083C3B18181E2
:100400008C2721F02DE04CE26C2F25DFE0E0F2E0BC
:10041000C18381E084BB8FE99FE00197F1F700C0C1
:100420000000C091090182818C2721F02DE044E376
:100430006C2F11DFE0E0F2E0C283C3B183818C272F
:1004400021F02DE04CE36C2F06DFC0930302CF9127
:1004500008951F920F920FB60F9211240BB60F92B0
:100460002F933F934F935F936F937F938F939F93BC
:10047000AF93BF93EF93FF9384E192E09CDE8111F1
:1004800006C0E1ECF0E080818F7D808305C084E1CF
:1004900092E05ADE8093C600FF91EF91BF91AF9139
:1004A0009F918F917F916F915F914F913F912F918C
:1004B0000F900BBE0F900FBE0F901F9018951F92BC
:1004C0000F920FB60F9211240BB60F922F933F93FA
:1004D0004F935F936F937F938F939F93AF93BF934C
:1004E000EF93FF938CE792E066DE811106C0E1EDA9
:1004F000F0E080818F7D808305C08CE792E024DE70
:100500008093D600FF91EF91BF91AF919F918F9112
:100510007F916F915F914F913F912F910F900BBE03
:100520000F900FBE0F901F90189511B817B88FEF4E
:100530008093070110920A0114B883E083BB8FE116
:1005400090E013D08FE190E01BD084E192E0DDDDFC
:100550008CE792E0DADD7894A5DE3ADF8FE19EE465
:100560000197F1F700C00000F7CF9093C50080938A
:10057000C40088EB8093C10086E08093C200089598
:100580009093D5008093D40088EB8093D10086E0CF
:0A0590008093D2000895F894FFCF85
:00000001FF
